:1000000000800020BD010000558A00000D8A00001C
:100010000D8A00000D8A00000D8A00000D8A000084
:100020000D8A00000D8A00000D8A0000558A00002C
:10003000558A00000D8A00002DAE000031AE000090
:10004000558A0000558A0000558A0000558A000034
:10005000558A0000558A0000558A0000558A000024
:10006000558A0000558A0000558A0000558A000014
:10007000558A0000558A0000558A0000558A000004
:10008000558A0000558A0000558A0000558A0000F4
:10009000558A0000558A0000558A0000558A0000E4
:1000A000558A0000558A0000558A0000558A0000D4
:1000B000558A0000017D00000D7D0000117D0000CB
:1000C0001D7D0000217D0000257D0000558A000077
:1000D000558A0000558A0000558A0000558A0000A4
:1000E000558A0000558A0000558A0000558A000094
:1000F000558A0000558A0000558A0000F5960000D8
:10010000558A0000799C0000558A0000558A00003D
:10011000558A0000558A0000558A0000558A000063
:10012000558A0000558A0000558A0000558A000053
:10013000558A0000558A0000558A0000558A000043
:10014000558A0000558A0000558A0000558A000033
:10015000558A0000558A0000558A0000558A000023
:10016000558A0000059F0000558A0000558A00004E
:10017000558A0000558A0000558A0000558A000003
:10018000558A0000558A0000558A0000558A0000F3
:10019000558A0000558A0000558A0000558A0000E3
:1001A000558A0000558A0000558A0000558A0000D3
:1001B000558A0000558A0000558A0000564B4CF2C3
:1001C000205210B51A804DF628121A8000BF00BFC9
:1001D00008F044FC514B4FF010621A60504A9A608C
:1001E000504ADA60504A136813F4807304D14F49BF
:1001F0000B604FF4A85313604D4B1A78110703D5C9
:100200001A7842F008021A704A4B4B492A221A7097
:100210004A4A4B4B8B4204D252F8040F43F8040B6A
:10022000F8E7484B484900228B4202D243F8042B9E
:10023000FAE74649464A002352F8230041F82300D2
:1002400001336F2BF8D1434B434A802103F8011B44
:100250009342FBD1414B3D4A1A60414B8A221A70AE
:10026000A3F5805324225A70A0221A709A7992071B
:10027000FCD59A79D406FCD43A4A937903F00C035E
:10028000082B384BF9D103221A7140225A719A79FE
:100290009006FCD5334A9179324B4906FBD5324A58
:1002A000324911600221516020221A709A7902F0BD
:1002B0000C020C2AFAD12E4B2E4A1A602E4B2F4AD2
:1002C0001A6000225A60072243F8042C2C4AC3F813
:1002D0000C2D62B608F078FE144B1B68DA0705D5C2
:1002E000284808F055FC284B284A1A60284B1B78F0
:1002F0005B0609D5244C254B22689A4204D121483B
:1003000008F046FC002323600CF060FC08F0ACFB16
:100310000BF08CF8FEE700BF0E2005403080044053
:10032000823F04000100002B10D0034014D0034092
:1003300002D0074000E007405092FF1F9C290100B7
:100340002087FF1F5092FF1FE0B9FF1F0082FF1F91
:100350000000000000E400E05FE400E008ED00E0E1
:100360000050064000400640448004400000030165
:1003700004800440C010050014E000E0FF76010096
:1003800000002020434EFB5F1CE00340A5C3945AAD
:1003900000F00740FFFFFFFFFFFFFFFFFFFFFFFF32
:1003A000FFFFFFFFFFFFFFFFFFFFFFFFFFFFFFFF5D
:1003B000FFFFFFFFFFFFFFFFFFFFFFFFFFFFFFFF4D
:1003C000FFFFFFFFFFFFFFFFFFFFFFFFFFFFFFFF3D
:1003D000FFFFFFFFFFFFFFFFFFFFFFFFFFFFFFFF2D
:1003E000FFFFFFFFFFFFFFFFFFFFFFFFFFFFFFFF1D
:1003F000FFFFFFFFFFFFFFFFFFFFFFFFFFFFFFFF0D
:10040000FFFFFFFFFFFFFFFFFFFFFFFFDEF9FFFF23
:1004100010B5054C237833B9044B13B10448AFF33E
:1004200000800123237010BD5092FF1F00000000C8
:1004300098290100084B10B51BB108490848AFF3D3
:1004400000800848036803B910BD074B002BFBD0A0
:10045000BDE81040184700BF000000005492FF1F85
:10046000982901005092FF1F00000000F0B4154FC2
:100470000024031F00F1800100F5827200F17C0668
:1004800043F8044FB34241F8047F4FF0000542F8AF
:10049000044FF5D100230C4A0C49C0F88C51C0F828
:1004A0009051C0F8B051C0F8A421C0F8AC21C0F8F8
:1004B000A81180F8B83180F8B93180F8D031F0BC9B
:1004C000704700BF0000A040000048430000C8C2C1
:1004D00038B590F8D031023B092B0546144607D8B1
:1004E00070296AD0E02931D0602900F09C8038BDA5
:1004F00070293AD0E02929D06029F8D1137A507AAE
:100500001B0203F47063181805D00CF0F9F8614968
:100510000CF04AF96860A37AE07A1B0203F4706376
:10052000181805D00CF0ECF85A490CF03DF9A86009
:10053000237B607B1B0203F470631818D7D00CF088
:10054000DFF854490CF030F9E86038BDE37BA07B5C
:1005500003EB00200CF0D4F84F490CF025F94F497B
:100560000CF01AF8C5F8900138BD137A507A1B02C6
:1005700003F47063181805D00CF0C2F845490CF06C
:1005800013F92861A37AE07A1B0203F47063181848
:1005900005D00CF0B5F83F490CF006F96861237BF3
:1005A000607B1B0203F470631818A0D00CF0A8F84D
:1005B00038490CF0F9F8A86138BD137A507A1B025B
:1005C00003F47063181805D00CF09AF831490CF058
:1005D000EBF86861A37AE07A1B0203F470631818E1
:1005E00005D00CF08DF82B490CF0DEF8A861237BC8
:1005F000607B1B0203F47063181805D00CF080F8C0
:1006000024490CF0D1F8E861A37BE07B1B0203F4E2
:10061000706318183FF46BAF0CF072F81D490CF0C2
:10062000C3F8286238BD137A507A1B0203F4706352
:10063000181805D00CF064F816490CF0B5F868608D
:10064000A37AE07A1B0203F47063181805D00CF04B
:1006500057F810490CF0A8F8A860237B607B1B02B8
:1006600003F47063181805D00CF04AF809490CF02F
:100670009BF8E860A37BE07B1B0203F4706318180F
:100680003FF435AF0CF03CF802490CF08DF82861CE
:1006900038BD00BF0AD7A33ADDB504BD000016433C
:1006A000D0F8DC01704700BF90F8C001704700BF70
:1006B00090F8BC01704700BF90F8C401704700BFBC
:1006C00090F8C801704700BF202994BF50F821005E
:1006D000002070472DE9F0410B4E8046041F00F1C9
:1006E0007C0754F8045F314628460CF0FBF930B122
:1006F000D8F8B41128460CF013FA00B12E46BC42CB
:10070000EFD13046BDE8F081000020412DE9F041F5
:10071000D0F8B4714FF00008041F00F17C0654F8C3
:10072000045F394628460CF0FBF9084948B12846D1
:100730000CF0D8F9414620B128460CF0F1F900B18F
:10074000A846B442EBD14046BDE8F08100007042BB
:100750002DE9F0470023D0F8B471C0F8DC318246AF
:100760001C464FF000099846061F56F8045F3846AD
:1007700029460CF0B7F90E4960B128460CF0B2F9E1
:1007800040B1484629460BF007FF08F101088146B1
:10079000CAF8DC410134202CE7D1CAF8D4814046A4
:1007A0000BF0AEFF014648460CF0B2F8BDE8F0870A
:1007B00000007042D0F8D401704700BFD0F890011B
:1007C000704700BFD0F89001704700BFD0F890018B
:1007D000704700BF2DE9F8434FF00008D0F8B4711E
:1007E000C0F88C818146041F00F17C0654F8045F38
:1007F000394628460CF094F9084950B128460CF0C7
:1008000071F930B1404629460BF0C6FE8046C9F862
:100810008C01B442EAD14046BDE8F8830000704242
:1008200002299ABF643150F821000020704700BFB0
:10083000102998BF80F8D011704700BF90F8B80118
:10084000704700BFC0F8CC11704700BF80F8B811E6
:10085000704700BF80F8B911704700BF30B5C0F8CD
:10086000B41183B008460BF0F5FA074C0225024696
:100870000B46009520460AF09BFC204603B0BDE8DD
:1008800030400AF03DBC00BFEC87FF1F70B500F59B
:1008900000550646183500F13804204604F5F0747A
:1008A000FFF7E4FDAC42F8D106F5067501242846B1
:1008B0000021FFF7CBFF214628460134FFF7B8FFA0
:1008C000112C05F5F075F2D142F2200400250548FF
:1008D000054A064B3555002130627162B262F362FF
:1008E000304670BD00007A44000048430000C8C292
:1008F00042F224032DE9F041002200F5F15500F504
:1009000000578046C2501835243700F5067403E0BE
:1009100004F5F074AC420ED02046FFF78FFF00289C
:10092000F6D020463E68FFF745FF04F5F0743044EA
:10093000AC423860F0D142F2240358F80300BDE81D
:10094000F08100BF70B50E460121356805F00F0437
:100950000C44C4EB041400EB441000F138042046AE
:10096000FFF774FF20460121FFF774FF324620464F
:1009700005F0F001BDE87040FFF7AABD70B5002397
:1009800000F5005605460361183600F5067403E0CD
:1009900004F5F074A64223D02046FFF74FFF00284D
:1009A000F6D02046FFF716FF014628690BF0F4FD4C
:1009B00028612046FFF702FFA96A0CF093F820BBDC
:1009C0002046FFF7FFFEE96A0CF0AAF80028DFD006
:1009D0002046FFF7F7FE04F5F074A642E862DBD18B
:1009E00068690BF08DFE014628690BF091FF696A7A
:1009F000286104460CF094F800B16C62296A204624
:100A00000CF070F800B12C6270BD2046FFF7D6FEE6
:100A1000A862D5E770B5124B836100F50055064614
:100A2000183500F5067403E004F5F074AC4214D0F8
:100A30002046FFF703FF0028F6D02046FFF74AFEC6
:100A4000B1690CF04FF80028EED02046FFF742FEC7
:100A500004F5F074AC42B061EAD1B06970BD00BF7A
:100A60000000A04070B5002300F500550646C361A4
:100A7000183500F5067403E004F5F074AC4214D0A8
:100A80002046FFF7DBFE0028F6D02046FFF73EFEAB
:100A9000F1690CF045F80028EED02046FFF736FE4D
:100AA00004F5F074AC42F061EAD1F06970BD00BFAA
:100AB0000069704741617047F8B50F46164600F56A
:100AC0000674012504E00135112D04F5F0741BD0E6
:100AD0002046FFF7B3FE0028F5D029460B480AF060
:100AE0005FFB0A480AF00CFB78200AF0FDF820466C
:100AF0003946FFF7A7FE013520463146FFF7AEFE27
:100B0000112D04F5F074E3D1F8BD00BFEC87FF1F91
:100B100042F21C032DE9F041002200F50055C250BD
:100B20002F46274A274B426306464FF000080363CF
:100B300018351C3700F5067403E004F5F074AC4278
:100B40002ED02046FFF77AFE0028F6D02046FFF789
:100B50003DFE00210BF0E4FF0028EED03B6801339E
:100B60003B602046FFF732FE014640460BF014FD85
:100B700080462046FFF726FE316B0BF0D1FFD0B93F
:100B80002046FFF71BFE716B0BF0ACFF0028D4D0A2
:100B90002046FFF713FE04F5F074AC427063D0D129
:100BA00042F21C03F0580BF0ABFD014640460BF03F
:100BB000AFFEBDE8F0812046FFF704FE3063DFE7BB
:100BC00000C0794400C079C4006B7047406B704727
:100BD000F8B500F5005507460026183500F50674EF
:100BE00003E004F5F074AC4210D02046FFF726FE77
:100BF0000028F6D02046FFF7ABFD014630460BF04B
:100C0000CBFC04F5F074AC420646EED142F21C0374
:100C1000F8580BF075FD014630460BF079FEF8BD33
:100C20002DE9F04F83B000F10F02C31D009204467E
:100C30000193002203F8012F00999942FAD101276C
:100C4000B94604F5067504F108082846FFF7F6FDD5
:100C5000E8B14FF0010B00262046FFF7B9FF5946D7
:100C600082462846FFF730FD014650460BF03AFF1A
:100C700020B10BF1FF3209FA02F216430BF1010B1E
:100C8000BBF1090FE8D1092F55D088F80060013772
:100C90000A2F05F5F07508F10108D6D14FF440721E
:100CA00008232260E3712146244806F0C9FE019B17
:100CB000002203F8012F00999942FAD104F59756C2
:100CC00018364FF00A084FF001093046FFF7B6FD1D
:100CD000D8B1012500272046FFF77AFF2946834631
:100CE0003046FFF7F1FC014658460BF0FBFE18B109
:100CF0006B1E09FA03F31F430135092DEBD1019B4C
:100D0000B8F10B0FCCBF1F705F70019B08F1010899
:100D10000133B8F1100F06F5F0760193D5D10748ED
:100D20004FF44472052321462260E37103B0BDE80D
:100D3000F04F06F085BEE673B0E700BFD0B5FF1FE9
:100D40002DE9F04F93B004460F91002A40F0D08176
:100D500015461046C54900F0D7FDC449284600F0A5
:100D6000D3FDC249284600F0CFFD42F21C032046C5
:100D700054F803B0FFF7BCFD8146206966690BF0AB
:100D800069F8CDE910012046FFF722FF8246204690
:100D9000A769D4F81C80FFF7BBFE0BF05BF8CDE928
:100DA0000C01394640460BF0F5FBB1490BF0FCFC59
:100DB0000BF050F8CDE90A0140460BF04BF8CDE9B5
:100DC000080138460BF046F8CDE9060150460BF015
:100DD00041F8DDE91023CDE90401CDE90223A5495D
:100DE00000964B465A46284600F08EFD9F492846FD
:100DF00000F08AFD04F506744FF0010ADDF83C901E
:100E000007E00AF1010ABAF1100F04F5F07400F0DE
:100E1000F2802046FFF712FD0028F2D02046FFF7AF
:100E200043FC2046FFF744FC2046FFF745FC2046E4
:100E3000FFF746FC0821904809F0D2FE51468F4842
:100E40000AF0AEF9BAF1090F03DC01218C4809F070
:100E5000C7FE02218B4809F0C3FE2046FFF7BAFC0B
:100E60000AF0F8FF5FFA89F802460B46CDF80080D9
:100E700082480AF09DF90121834809F0B1FE20461D
:100E8000FFF70EFC0C2800F3B98001261DE00721B6
:100E90007E4809F0A5FE294678480AF081F902212A
:100EA0007B4809F09DFE31462046FFF70DFC0AF015
:100EB000D1FFCDF8008002460B4670480AF078F961
:100EC000012171480E4409F08BFE2046FFF7E8FB34
:100ED000864269DC092D05F10105D8DC012168484D
:100EE00009F07EFED3E72046FFF7DAFB172800F370
:100EF000B98035460D261CE0013509F071FE294602
:100F00005E480AF04DF90221614809F069FE314658
:100F10002046FFF7D9FB0AF09DFFCDF8008002467E
:100F20000B4656480AF044F9012157480E4409F08F
:100F300057FE2046FFF7B4FB86424FF007015348A7
:100F4000DADD0F21534809F04BFE4C480AF0D8F87F
:100F50002046FFF7A5FB192826DD19261CE00135E0
:100F600009F03EFE294645480AF01AF90221484890
:100F700009F036FE31462046FFF7A6FB0AF06AFF6D
:100F8000CDF8008002460B463C480AF011F90121D9
:100F90003D480E4409F024FE2046FFF781FB8642BF
:100FA0004FF007013948DADD0F213A4809F018FE01
:100FB00032480AF0A5F80921374809F011FE00214E
:100FC0002046FFF72DFC0AF045FF022602460B469D
:100FD00000962A480AF0ECF80F212E4809F000FE8E
:100FE0000AF1010A25480AF08BF8BAF1100F04F54E
:100FF000F0747FF40EAF13B0BDE8F08F2F460126DA
:101000001FE00721214809F0EBFD39461B480AF093
:10101000C7F802211E4809F0E3FD31462046FFF7DC
:1010200053FB0AF017FFCDF8008002460B46134829
:101030000AF0BEF801360121134809F0D1FD0C2E4B
:1010400008D0092F07F10107DBDC01210C4809F06A
:10105000C7FDD6E72046FFF723FB0C2805F10B065A
:101060003FF741AF16350D2739E000BF602301007F
:1010700000007A4420100100C0100100EC87FF1F1F
:101080007011010084140100CC100100D010010087
:1010900060110100D8100100E81001000721BA48D2
:1010A00009F09EFD3146B9480AF07AF80221B848A5
:1010B00009F096FD39462046FFF706FB0AF0CAFE06
:1010C000CDF8008002460B46B0480AF071F80121C5
:1010D000B0480F4409F084FDB5423FF432AF092E09
:1010E00006F10106DADC0121AB4809F079FDD5E70C
:1010F000AA49012000F008FCA849012000F004FCE6
:10110000A649012000F000FC42F21C032046E258F0
:101110001092FFF7EDFB8246206966690AF09AFE9D
:10112000804620468946FFF753FD83462046A56941
:10113000E769FFF7EDFC0AF08DFECDE90C012946C9
:1011400038460BF027FA96490BF02EFB0AF082FE88
:10115000CDE90A0138460AF07DFECDE908012846AE
:101160000AF078FECDE9060158460AF073FE5346B0
:10117000CDE90401CDE90289109A8A49009601203F
:1011800000F0C2FB8549012000F0BEFB04F50674A7
:101190004FF0010A0025DDF83C9007E00AF1010A52
:1011A000BAF1100F04F5F0743FF425AF2046FFF7B5
:1011B00045FB0028F2D02046FFF776FA2046FFF7DD
:1011C00077FA2046FFF778FA2046FFF779FA0821E8
:1011D000754808F08BF95146744809F0E1FFBAF1FF
:1011E000090F03DC01216C4808F080F902217048E6
:1011F00008F07CF92046FFF7EDFA0AF02BFE5FFAC3
:1012000089F802460B46CDF80080684809F0D0FF07
:101210000121604808F06AF92046FFF741FA0C28DE
:1012200000F3AF8001261DE00721574808F05EF962
:1012300029465E4809F0B4FF0221554808F056F9E6
:1012400031462046FFF740FA0AF004FECDF8008050
:1012500002460B46554809F0ABFF01214D480E44AC
:1012600008F044F92046FFF71BFA864269DC092D95
:1012700005F10105D8DC0121474808F037F9D3E72B
:101280002046FFF70DFA172800F3C98035460D26D2
:101290001CE0013508F02AF92946444809F080FF8E
:1012A00002213B4808F022F931462046FFF70CFAAC
:1012B0000AF0D0FDCDF8008002460B463B4809F00D
:1012C00077FF012133480E4408F010F92046FFF75C
:1012D000E7F986424FF007012B48DADD0F21354848
:1012E00008F004F9314809F00BFF2046FFF7D8F960
:1012F000192826DD19261CE0013508F0F7F82946E3
:101300002A4809F04DFF0221214808F0EFF8314644
:101310002046FFF7D9F90AF09DFDCDF8008002467E
:101320000B46224809F044FF01211A480E4408F0F8
:10133000DDF82046FFF7B4F986424FF00701124866
:10134000DADD0F211B4808F0D1F8184809F0D8FE63
:101350000921194808F0CAF800212046FFF760FA71
:101360000AF078FD022602460B4600960F4809F067
:101370001FFF0F210F4808F0B9F80C4809F0C0FE14
:101380000CE72F46012639E0D0100100EC87FF1F43
:1013900060110100CC1001007011010060230100F8
:1013A00000007A4420100100C0100100C087FF1F18
:1013B00084140100D8100100E810010007212E4814
:1013C00008F094F839462D4809F0EAFE02212C482D
:1013D00008F08CF831462046FFF776F90AF03AFD1E
:1013E000CDF8008002460B46244809F0E1FE0136A4
:1013F0000121244808F07AF80C2E08D0092F07F1B3
:101400000107DBDC0121204808F070F8D6E7204610
:10141000FFF746F90C2805F10B063FF731AF1635FB
:101420000D2720E00721144808F060F831461348E2
:1014300009F0B6FE0221124808F058F83946204655
:10144000FFF742F90AF006FDCDF8008002460B4690
:101450000A4809F0ADFE01210A480F4408F046F899
:10146000B5423FF43BAF092E06F10106DADC01215B
:10147000054808F03BF8D5E7D0100100C087FF1FF2
:1014800060110100CC100100701101002DE9F04F36
:1014900085B000F506758A4603929B462E464FF0AE
:1014A000010806E008F10108B8F13F0F06F5F076F3
:1014B0007BD03046FFF7C2F90028F3D000230A2280
:1014C00051467D4809F02CFE01217C4809F088FB3B
:1014D00003980AF0BFFC00230246009376480B46AF
:1014E00009F066FE0121754809F07AFB59467248F9
:1014F00009F056FE0121714809F072FB41466E4821
:1015000009F04EFE01216D4809F06AFB00244FF0FE
:10151000020921463046FFF7D7F80AF09BFCCDF8C8
:10152000009002460B46644809F042FE0134012156
:10153000624809F055FB082C4FF00207E9D1002161
:101540003046FFF76DF90AF085FC009702460B461E
:10155000594809F02DFE0121584809F041FB0121AD
:101560003046FFF75DF90AF075FC009702460B461E
:10157000514809F01DFE0121504809F031FB394660
:101580003046FFF74DF90AF065FC009702460B461E
:10159000494809F00DFE08F10108474809F0B0FD7F
:1015A000B8F13F0F06F5F07683D101274FF000091F
:1015B00004E001373F2F05F5F07579D02846FFF795
:1015C0003DF90028F5D000230A2251463C4809F095
:1015D000A7FD0121394807F089FF03980AF03AFC7A
:1015E000CDF8009002460B46354809F0E1FD012197
:1015F000324807F07BFF5946314809F0D1FD0121FF
:101600002E4807F073FF39462D4809F0C9FD012126
:101610002A4807F06BFF00244FF0020821462846B5
:10162000FFF752F80AF016FCCDF8008002460B4690
:10163000234809F0BDFD01340121204807F056FF81
:10164000082C4FF00206E9D100212846FFF7E8F800
:101650000AF000FC009602460B46194809F0A8FD66
:101660000121164807F042FF01212846FFF7D8F86C
:101670000AF0F0FB009602460B46114809F098FD6F
:1016800001210E4807F032FF31462846FFF7C8F81F
:101690000AF0E0FB009602460B46094809F088FD77
:1016A0000137074809F02CFD3F2F05F5F07585D16E
:1016B00005B0BDE8F08F00BFEC87FF1FF4100100FC
:1016C000C087FF1F70B5044608460D460CF078F839
:1016D00023680246294620465B68BDE870401847EB
:1016E000014B1870704700BF2087FF1FF0B51546EB
:1016F000027883B062B103460E46252A16D01878C8
:101700001C4685B909F0F0FA6278631C002AF4D10E
:10171000002D5CD0744803B0BDE8F04009F0F0BC87
:101720001046002DEED007F089FEEDE758785C1CDE
:101730000028EDD02528F3D073282FD0642825D099
:10174000692823D0662848D07A2853D078285ED0DC
:10175000582800F08580622800F09180422866D0E9
:101760006C2813D0632811D0742800F09880542876
:10177000C7D133680436002D40F0A480012B00F05F
:10178000A8800521594809F02BFABDE7331D3168BF
:1017900085B957481E4609F003FDB5E7371D366881
:1017A000304665B90CF00CF8014630463E4609F06B
:1017B00017FAA9E74C481E4609F0F2FCA4E70BF023
:1017C000FFFF014630463E4607F090FE9CE7484842
:1017D00003B0BDE8F04009F093BC073626F00706D9
:1017E0000321D6E90023009165B94148083609F084
:1017F000DFFC89E7073626F00706D6E9002385B126
:10180000002100913848083609F0D2FC7CE7371DEA
:101810003168F5B90023102235483E4609F080FCB6
:1018200072E700953248083609F0C2FC6CE70221E5
:1018300030487DBB09F0D4F93168371D2B460222B0
:101840002B483E4609F06CFC5EE707F04FFE31681E
:10185000371D0023102224483E4609F061FC53E75F
:1018600002212548002DF0D109F0BAF9371D316861
:101870001F482B4610223E4609F052FC44E7371D14
:101880003168002DDAD00023022217483E4609F0C5
:1018900047FC39E707F02AFE371D3168F3E7316866
:1018A00004363DB901290EBF14481548012109F03D
:1018B00097F929E701290EBF10481148012107F0C7
:1018C00015FE21E7012B09D00521084807F00EFE7F
:1018D0001AE70C490648FFF7F5FE15E709490248E3
:1018E000FFF7F0FE10E700BFC087FF1F34110100B3
:1018F000EC87FF1F201101001C11010024110100C1
:10190000281101002C1101000EB400B582B003A90A
:10191000024651F8040B0191FFF7E8FE02B05DF8B2
:1019200004EB03B0704700BF30B4074D074C0849C3
:1019300000232B70236003654365836580F85C306A
:101940000B6030BC704700BF7492FF1F7092FF1F86
:101950006C92FF1F2DE9F8434649474F474D484ECB
:10196000484CDFF854810020FFF7CEFF464B474A32
:1019700047485A60DF601222002746491A701861F2
:10198000454A46485D615E62454D9C614FF07C561C
:10199000444C1F63444F9962DA62444958630C22F5
:1019A00043489D635E6440F61C450A269C641F62A2
:1019B00041F204043F4FD9641A6502210122C3F8A1
:1019C000BC009D6600206425DE661C674FF4967699
:1019D0003224DF61DF635A27597059721A725A65CF
:1019E00083F840009D655E66DE651C665F67C3F830
:1019F0009840C3F8A4408C244FF47A799867D9674B
:101A0000C3F88000DFF8B4C0C3F8A00044F6206E2D
:101A1000C3F8AC20C3F8B010FF2741F28831C3F8F7
:101A2000B450052683F8C02083F8C12083F8C22073
:101A30004FF4FA7540F2D6624FF4964083F8CC40EA
:101A4000C3F89C90C3F88880C3F88CC0C3F890E0BA
:101A5000C3F8A870A3F8BA60A3F8C450C3F8C800CC
:101A6000C3F89410A3F8B810A3F88420A3F8862034
:101A7000BDE8F8833C11010066668640333383403D
:101A8000CDCCCC3DCDCC4C40FC92FF1F48E80100B2
:101A90000000404000008242000020C100002042BF
:101AA0000000A0409A997940333373400AD7233D10
:101AB0009A99993ECDCC4C3E0000684200C020442B
:101AC00070B5464C464D4748E66800232B70FEF73C
:101AD000C9FF014630460BF005F808B104232B700E
:101AE0004048FEF797FF21690AF0FCFF18B12B78F8
:101AF00043F010032B703B48FFF766F8A16A0BF028
:101B00000FF818B12B7843F040032B7000233548B1
:101B10006B70FFF75BF8E16A314E0AF0E3FF08B142
:101B20000123737000232F48EB70FEF79BFF0546DF
:101B30002C482B4EFEF76EFF014628460AF02AFD80
:101B4000E16B0AF0EDFF08B10123F370264D254843
:101B500000232B70FEF786FF616A0646E0680AF0F4
:101B600019FD014630460AF0DBFF08B104232B7053
:101B70001C48FEF74FFF616A064620690AF00CFD1B
:101B8000014630460AF0AEFF18B12B7843F010033F
:101B90002B701448FFF718F8A16B0646A06A0AF0EC
:101BA000F9FC014630460AF0BBFF18B12B7843F030
:101BB00040032B7000230B486B70FFF707F8A16BF5
:101BC0000546E06A084C0AF0E7FC014628460AF0A0
:101BD00089FF08B10123637070BD00BFFC92FF1F35
:101BE000F892FF1FA895FF1FD093FF1F2DE9F0412A
:101BF0007C4C2368012B82B031D0022B00F0A880EE
:101C0000032B00F0C8803BBB774B784AD3F8A41075
:101C1000D3F8A83012685B1A632B0EDD744803FBFF
:101C200002F380FB0302DB17C3EB621319440620A7
:101C300002B0BDE8F04106F0BDBF6E4803FB0223D1
:101C400080FB0302DB17C3EB22121144062002B013
:101C5000BDE8F04106F0AEBF02B0BDE8F081664ECF
:101C600033680A33B3F57A7F00F3B78018463360E0
:101C70000AF046FD61490AF097FD80465A4DD5F8B5
:101C8000A4000AF03DFD0746D5F8A8000AF038FD8B
:101C900039460AF07FFC41460AF086FD58490AF0B1
:101CA00037FE39460AF078FC0AF044FF0146062068
:101CB00006F080FF0221534808F092FF524809F0D5
:101CC0001FFA0621514808F08BFF30680AF018FD12
:101CD0004A490AF069FD0AF0BDF8022702460B46A0
:101CE0000097494809F064FA0D21494808F078FF47
:101CF000D5F8A4000AF004FD804630680AF000FD23
:101D00003E490AF051FD0646D5F8A8000AF0F8FC55
:101D100041460AF03FFC014630460AF045FD38498D
:101D20000AF0F6FD41460AF037FC0AF093F80097F6
:101D30000B460246344809F03BFA3946314808F070
:101D40004FFF314809F0DCF92368022B7FF458AFCC
:101D5000294B254E00221A60D6F8A4000AF0D0FCC8
:101D60000546D6F8A8000AF0CBFC29460AF012FC7A
:101D700000210AF019FD22490AF0CAFD29460AF09D
:101D80000BFC0AF0D7FE0146062006F013FF23687D
:101D9000032B7FF438AF184B134E4FF47A721A604E
:101DA000D6F8A4000AF0ACFC0546D6F8A8000AF064
:101DB000A7FC29460AF0EEFB11490AF0F5FC104990
:101DC0000AF0A6FD29460AF0E7FB0AF0B3FE014639
:101DD000062006F0EFFE236815E700234FF0000809
:101DE00033604BE7D092FF1FFC92FF1F3887FF1F25
:101DF0001F85EB51CBF08D288C92FF1FCDCCCC3DB5
:101E00000000C84284140100EC87FF1F5C11010030
:101E10006411010070B5B648B64C09F071F9B448C8
:101E200009F06EF9B24809F06BF90D21B24808F0DB
:101E3000D7FED4F8A030012B11D0B04CAC4821789B
:101E400000230A2209F06CF92378052B67D8DFE814
:101E500013F0100115011A011F01240106010921C7
:101E6000A74808F0BDFEA748FEF7D4FD21690AF097
:101E700039FE18B10F21A44808F0B2FEA148FEF7C0
:101E8000F1FDE1680AF04CFE18B10E219F4808F000
:101E9000A7FE9C48FEF7E6FD05469A48FEF7BAFD08
:101EA000014628460AF076FBE16B0AF039FE18B1CC
:101EB0001121974808F094FE9248FEF729FEA16A86
:101EC0000AF02EFE18B10C21924808F089FE8D48C8
:101ED000FEF71EFEE16A0AF005FE18B10D218E48DC
:101EE00008F07EFE8D4B87481B68012B00F0E980CF
:101EF000FEF790FD21697F4D0AF012FE78B181480E
:101F0000FEF7B0FDE9680AF0EDFD40B17B4B1B78B0
:101F1000052B00F0E7800821814808F061FE0221CE
:101F2000804808F05DFE122006F0CAFF012800F08C
:101F3000B980112006F0C4FF012800F0BD807A4B63
:101F40001B78002B40F0868002217648774C08F001
:101F500047FE774B6648196809F022F9644809F092
:101F6000CFF80421734808F03BFE0B2006F0A8FFD1
:101F7000002301460A225E4809F0D2F80C2006F040
:101F80009FFF002301460A22594809F0C9F814208E
:101F900006F096FF002301460A22554809F0C0F8D2
:101FA000152006F08DFF0A2200230146504809F053
:101FB000B7F80621604808F013FE2368DD074FF0EC
:101FC00001014CBF5D485E4808F00AFE236898078F
:101FD0004FF001014CBF5948594808F001FE2368F1
:101FE0005A074FF001014CBF5448554808F0F8FD1E
:101FF00023681B074CBF51485148012108F0F0FDF0
:102000000421504808F0ECFD112006F059FF002390
:1020100001460A22364809F083F8102006F050FFE6
:10202000002301460A22324809F07AF8122006F00D
:1020300047FF002301460A222D4809F071F81320BA
:1020400006F03EFF002301460A222948BDE8704001
:1020500009F066B812213C4808F0C2FD74E7072178
:102060003A4808F0BDFD3A4B2148196809F098F844
:1020700055E70621374808F0B3FD50E707213648F9
:1020800008F0AEFD4BE70721344808F0A9FD46E70C
:102090000821334808F0A4FD41E70B21314808F03E
:1020A0009FFD3CE70E21304808F09AFD112006F014
:1020B00007FF01287FF443AF0A212C4808F090FD68
:1020C0003DE7FEF7A7FC216A0AF02AFD00283FF44D
:1020D00022AF1621264808F083FD0A21254808F082
:1020E0007FFD1CE70A21234808F07AFD17E700BFAF
:1020F000EC87FF1FFC92FF1F741101007494FF1FF7
:1021000084110100A895FF1F90110100A01101008A
:10211000B0110100C4110100D41101009892FF1FF9
:1021200008120100841401001495FF1FCC93FF1FB7
:102130005C94FF1F7C120100841201008C120100CC
:102140003C220100901201006812010044120100BB
:102150001895FF1F141201001C120100301201001B
:1021600038120100241201004C1201005C1201001F
:10217000E4110100FC1101002DE9F04FA84CE56FBE
:10218000012D8DB000F07281032D00F0C780DFF8C3
:10219000D0A2A44FA44EA36FA448012B09BF31685D
:1021A000316801F10041316006F066F93B68002BAF
:1021B00040F09A809D48DFF8A88206F033F93B682A
:1021C000CAF800000546002B3FD1E36F944F012B66
:1021D0004ED025F0004096490AF0A2FC98B9954AE5
:1021E000954B12680B920B9A1A60D4F8AC000AF067
:1021F00087FA29460AF0D8FA0023CAF800003360AB
:102200000DB0BDE8F08F8B4FDFF82C823B680A934E
:102210000A98D8F80030DFF84C92C01A0AF06CFA2D
:1022200029460AF0C1FA85490AF072FB83490AF08F
:102230006FFBD9F800100AF0AFF93B680993099BCE
:10224000C9F80000C8F80030CFE709F003FE022506
:102250000B46024600957A48714F08F0A9FF042109
:10226000784808F0BDFCE36FD8F80050012BB0D1DE
:10227000754B1B68012B00F0E381022BB5D125F0D3
:10228000004009F0E7FD8046D7F89000894609F044
:10229000CFFD02460B46404649460AF0BFF80028EB
:1022A00000F0F681DFF88C91634FD9F80030079386
:1022B00007983B68DFF8AC81C01A0AF01DFA29467E
:1022C0000AF072FA5D490AF023FB5C490AF020FB30
:1022D000D8F800100AF060F9D9F800300693069B90
:1022E000C8F800003B6080E7504806F09BF809F012
:1022F000B1FD022502460B460095514808F058FFF3
:102300000321524808F06CFCD4F890104C4808F0B7
:1023100047FF03214D4808F063FC4BE7DFF8488195
:10232000494ED8F80030DFF838A1D3F884000F21E7
:102330000123336006F030F833683A4F012B3B68D5
:1023400000F0BC80002B40F03881D8F80030404DC0
:10235000D3F88400436B19698EB22E6005F09EFDA0
:10236000B4F8862040F6E44303FB06F1B1FBF0F03D
:10237000801A00B20AF0C4F936492B4E8146D4F8CF
:1023800088000AF011FA014648460AF0C1FA2B68A3
:102390003060632BDFF8B89000F345810023336091
:1023A0003B68002B3FF4F7AE02212B4808F018FCE5
:1023B000D8F800302D68D3F8840040F6E44303FBDE
:1023C00005F505F06BFDB5FBF0F00AF095F9054653
:1023D000B4F886000AF094F9014628460AF0DAF8C3
:1023E00009F038FD022502460B460095144808F016
:1023F000DFFE2946184808F0F3FB306809F02AFD93
:10240000009502460B460E4808F0D2FE29461348B6
:1024100008F0E6FB2946104808F0E2FBBBE600BFE7
:10242000FC92FF1F3495FF1F9492FF1FD492FF1F51
:102430000000FA4378B7FF1F0895FF1F00007A4499
:10244000EC87FF1FDC1201005487FF1FD812010028
:10245000F492FF1F9175DD3684140100D41201003F
:10246000B092FF1FBC92FF1F0C95FF1FDFF8FCA26C
:10247000DFF8E882DAF8000020F0004009F0EAFC1A
:102480000646D4F890000F4609F0D2FC02460B46EF
:102490003046394609F0A4FFA24E002800F08380A0
:1024A000D8F800303560D3F884009F4F0F2105F035
:1024B00073FF3368012B3B687FF444AF002B40F07F
:1024C000F580D8F80030994DD3F88400436B196932
:1024D0001FFA81FBC5F800B005F0E0FCB4F88430C9
:1024E000934E40F6E44909FB0BFBBBFBF0F0C01A2E
:1024F00000B20AF005F98F498346D4F88C000AF03F
:1025000053F9014658460AF003FAD8F800202B6820
:102510003060D2F8840009FB03F905F0BFFCB4F881
:102520008430B9FBF0F00FFA80F9C3EB0903002BFC
:10253000B4F8BA20B8BF5B429342BCBF00233360FB
:102540003B68002B3FF427AE02217B4808F048FB94
:10255000D8F800302D68D3F8840040F6E44303FB3C
:1025600005F505F09BFCB4F88410B5FBF0F000B263
:10257000411A724808F014FE02216F4808F030FB3F
:10258000306809F067FC022502460B4600956B484F
:1025900008F00EFE03216A4808F022FB294666482F
:1025A00008F01EFBF7E5D8F800200223D2F88400DB
:1025B00033600E2105F0F0FEBEE660485B4DDFF8AB
:1025C0009C9108F09DFD0C215E4808F009FB0C2150
:1025D0005D4808F005FBD8F800203B68D2F884007D
:1025E000426B11698EB22E60002B3FF4B7AE05F03E
:1025F00055FC40F6E44100230A2201FB06F1B1FB41
:10260000F0F14E4808F08CFD02214B4808F0E8FA42
:10261000B4F88610494808F0C3FDD9F800302E6898
:10262000D3F884009AE6D8F80030D3F8840005F097
:1026300035FCD9F8003064389842FFF4AFAEAFE60D
:1026400025F0004041490AF06BFA40B3DFF80891E9
:102650003F4FD9F80030049304983B68DFF81081AD
:10266000C01A0AF049F829460AF09EF839490AF0DA
:102670004FF938490AF04CF9D8F8001009F08CFFEE
:10268000D9F800300393039BC8F800003B60ACE529
:10269000314A2F4B12680892089A1A60A5E52E4A13
:1026A0002B4B12680592059A1A609EE523481F4D30
:1026B0002A4E08F025FDE36F012B4FF00B010CBFF4
:1026C0002748284808F08CFA0C211F4808F088FA9F
:1026D000D8F800203B68D2F88400426B11691FFAD9
:1026E00081FBC5F800B0002B3FF4F6AE05F0D6FB39
:1026F00040F6E44100230A2201FB0BF1B1FBF0F1AB
:102700000E4808F00DFD0121174808F069FAB4F8E9
:1027100084100A4808F044FD3368D5F800B0D3F8B7
:102720008400D9E65487FF1F3495FF1FF492FF1FE2
:102730009492FF1F9175DD3684140100EC87FF1F12
:10274000C0120100C4120100B01201000000FA43DF
:102750000895FF1F00007A4478B7FF1F0C95FF1FF4
:1027600098120100A412010070110100B092FF1F25
:10277000BC92FF1F2DE9F04F994C236885B0002BC8
:102780007BD0984DDFF86482974FDFF8A892D5F898
:102790008030944E012B00F08B80D7F800A0D6F843
:1027A00058B0746D914E04FB0BF44FF47A7000FB3B
:1027B00004F009F0A5FF8E490446504609F0F4FFE5
:1027C00021460AF0A5F88B4909F0EEFF0AF0B2F9AC
:1027D0006328C8F800004BDD204685490AF098F8C8
:1027E000642338603360D9F80030002B3DD0EB6FA4
:1027F0007C4C012B00F08A80032B00F0DF80022B41
:1028000000F0E28002217C4808F0EAF97B4B18686E
:1028100009F020FB022402460B460094784808F099
:10282000C7FC2146774808F0DBF92146724808F0DA
:10283000D7F9D8F80010724808F0B2FC06217248A7
:1028400008F0CEF938686A4909F0AEFF09F002FBDA
:10285000009402460B466A4808F0AAFC03216B4824
:1028600008F0BEF9664808F04BFC05B0BDE8F08FF3
:102870000028BCBF00233360B5E7654E594D33686F
:102880000293029A42F228339A424BD83368039358
:10289000039A42F210739A424BD8D5F88030DFF891
:1028A0004C81514FDFF88C914E4E012B7FF475AF68
:1028B0005848FEF78DF95849D6F868A0F46E09F02B
:1028C00073FF0AF05DF9326F736FD5F858B0CAEB39
:1028D00002021B1B80B29A42CAEB0000C6BF03FB78
:1028E00000000132584390FBF2F020446C6D00FB75
:1028F0000BF004FB00F000EB8000400009F000FF4B
:102900003B490AF005F8824638604BE7434B1B68A9
:10291000012B4FF00A010CBF4148424808F060F912
:10292000E36F69E73B486A6C95F84010FEF7C4F81E
:10293000ACE73848FEF74CF93749AF6EEE6E09F058
:1029400033FF0AF01DF92A6F6B6FD21B9B1B80B2FD
:102950009A42A0EB07003CDD03FB0000531C90FBF8
:10296000F3F31E44A86D6B6DDFF88080DFF8C49030
:10297000C8F8006000FB06F003FB00F000EB8000ED
:10298000400009F0BDFE1A49174F09F0C1FFD9F800
:102990000030386001222260002B3FF4F8AE0221A3
:1029A000154808F01DF9164808F0AAFB59211E48E1
:1029B00008F016F9124808F0A3FBE8E610211B48BE
:1029C00008F00EF9EB6F1AE70721194808F008F92B
:1029D00018E703FB00F393FBF2F31E44C2E700BFCA
:1029E0009092FF1FFC92FF1FBC92FF1F3887FF1FB2
:1029F000E4388E3E0000C84284140100B092FF1FEC
:102A0000EC87FF1FD4120100741301007C13010036
:102A100078B7FF1FA895FF1F00007A445487FF1F57
:102A2000401301004C130100E4120100581301008F
:102A30006C1301004C87FF1F2DE97043112082B0F9
:102A400006F03EFA012819D0122006F039FA0128C2
:102A500014D000210B2006F02DFA00210C2006F0E6
:102A600029FA0021152006F025FA2D492D4B0120C9
:102A7000002208701A6002B0BDE8708301211520A1
:102A800006F018FA284B294A1B680193284C116854
:102A9000019BD4F89420234D5B1A022693422E60AA
:102AA00006D201210C2006F005FA02B0BDE87083C1
:102AB000204B186820F0004009F0CCF98046D4F88B
:102AC0009C00894609F0B4F902460B464046494647
:102AD00009F0A4FC0028E4D101210B2006F0EAF95A
:102AE00094F8C03003222A6043B10D4B1E700021C0
:102AF0000C2006F0DFF902B0BDE87083112006F06B
:102B0000DFF9012808BF064B4FF0120008BF1E7006
:102B100006F0D6F90128EAD1014B03221A70E6E744
:102B20007494FF1F3095FF1F78B7FF1F3C95FF1F60
:102B3000FC92FF1FB092FF1FF0B56D4E6D4D3468D3
:102B40002B689C4287B03AD014F0010156D014F0A3
:102B500002014AD014F004013ED0E3070FD52B68E0
:102B6000DF070CD4644F3A68002A00F09E80634B64
:102B70001B680193019B934200F289803468A0078F
:102B80000DD52B6899070AD45D4F3A68002A3ED0CC
:102B90005A4B1B680393039B93425AD834686207CD
:102BA0000DD52B685B070BD4564F3A68002A3FD0EF
:102BB000524B1B680593059B934258D834680CB15F
:102BC00007B0F0BD2146162005F0F4FF214617207E
:102BD00005F0F0FF07B0F0BD052005F0EBFF2B6816
:102BE000346803F0FB032B60B7E7172005F0E2FF22
:102BF0002B68346803F0FD032B60ABE7162005F06B
:102C0000D9FF2B68346803F0FE032B609FE73E4B2F
:102C10001B68002B56D1FF21172005F0CBFF374B47
:102C20003A4A19680291029912680A443A60B0E778
:102C3000354B1B68002B50D1FF21052005F0BAFF52
:102C40002E4B324A19680491049912680A443A607A
:102C5000AFE72F4B1720D3F8981005F0ABFF2B6888
:102C6000346843F0020300222B603A6097E7284B58
:102C70000520D3F8981005F09DFF2B68346843F0C9
:102C8000040300222B603A60002C99D19AE7204B74
:102C90001620D3F8981005F08DFF2B68346843F0A8
:102CA000010300222B603A6069E7FF21162005F03E
:102CB00081FF124B154A19680091009912680A4465
:102CC0003A6055E7134808F01BFA0C21124807F048
:102CD00087FF104808F014FA9DE70E4808F010FA34
:102CE0000C210E4807F07CFF0A4808F009FAA3E718
:102CF0003095FF1FCC93FF1F4C94FF1F78B7FF1F29
:102D00005094FF1F5494FF1F4C87FF1F6C87FF1FB9
:102D1000FC92FF1FEC87FF1F80130100901301003E
:102D20002DE9F047534EDFF870813368DFF86C917E
:102D3000D3F88400504D0F2105F02EFB0023012213
:102D400022214E48C8F80030C9F8002007F048FF9B
:102D5000D8F80030132B20DC40F6E4473368B5F890
:102D600084A0D3F88400436B1C6905F097F8A4B2E3
:102D7000012107FB04F4B4FBF0F441485444A5F8E6
:102D8000844007F02DFF642006F0D0F8D8F800301A
:102D90000133132BC8F80030E0DDB5F88430394A30
:102DA0003948A2FB03129B1A02EB5303C3F30F1320
:102DB0001946A5F8843008F0F3F91D21334807F0CF
:102DC0000FFF0221324807F00BFF2F4808F098F957
:102DD00000231A460E213068C8F8003004F0D8FFEE
:102DE000022322212548C9F8003007F0F9FED8F85F
:102DF0000030132B20DC40F6E4473368B5F88690AA
:102E0000D3F88400436B1C6905F048F8A4B2012193
:102E100007FB04F4B4FBF0F419484C44A5F88640D1
:102E200007F0DEFE642006F081F8D8F800300133A8
:102E3000132BC8F80030E0DDB5F88630114A12488F
:102E4000A2FB03129B1A02EB5303C3F30F131946A1
:102E5000A5F8863008F0A4F91D210E4807F0C0FE41
:102E600002210B4807F0BCFE0748BDE8F04708F018
:102E700047B900BF0C95FF1FFC92FF1FA013010074
:102E8000E413010087611886EC87FF1FC41301005B
:102E900084140100E8130100AC92FF1F5487FF1F48
:102EA000F8B5804B804C814D1B68286D40F2513144
:102EB00008222160E271002B00F0E28009F020FC82
:102EC000296A064609F070FC794909F06DFC09F0A1
:102ED00057FE80B203126372764A774B12681B6802
:102EE000A96920721512A37230461B12E372227375
:102EF000657309F059FC6E4909F056FC09F040FE73
:102F000083B21A1268496D48A373E27304F098FD06
:102F10006B4B6C4A1B6812886349A272DFB207EBE5
:102F2000870503EB83066D0046F3D71612121B12BA
:102F30002772257366730825002640F255375F48CF
:102F4000E27263722760E571A673E67304F078FDA0
:102F500040F256335C482360E571FDF7A9FD5B49FB
:102F600009F022FC09F00CFE20725748FDF7A0FD85
:102F7000564909F019FC09F003FE554A5349C0F3BC
:102F800007231068637209F0C3FC09F0D3FD40FA0F
:102F900005F203464C48E272A372FDF7B9FD4449BD
:102FA00009F002FC09F0C6FD20734748FDF7B0FDAB
:102FB0003F4909F0F9FB09F0BDFD3B49A67340F319
:102FC00007233E486373E67304F03AFD022005F0E0
:102FD000ADFF404A404B17785678D178187892F870
:102FE00002E02772DA785F786672E1729E78207369
:102FF00040F25A332C493148E57184F80AE067738E
:10300000A673E273236004F01BFD344B2649187845
:103010005E789A782072187993F803E05F79667287
:10302000A2729E79DA79207340F25E33234884F8E5
:103030000BE0E2732360E5716773A67304F000FD93
:10304000022005F073FF264BE5711E785A7893F83D
:1030500002E0D8781F799D79267262725E79DA79FA
:10306000E0724FF45C7384F80AE027736673A5730B
:10307000E27323600C491148BDE8F84004F0E0BC5D
:1030800009F03EFB174B06461B68174880FB0320E0
:10309000DB17C3EB601009F033FB696909F084FBAF
:1030A00031460FE79892FF1F2095FF1FFC92FF1FEC
:1030B000000020410495FF1F7C92FF1FD0B5FF1F29
:1030C0003887FF1F3C87FF1FA895FF1F0000C842DD
:1030D000B092FF1FF892FF1FD093FF1F2C87FF1F96
:1030E0005887FF1F6887FF1F1F85EB5170B50A4B7C
:1030F0000A4800224FF400760325022419461E6078
:10310000DD711C725A729A7204F09AFC0448BDE890
:103110007040FDF785BD00BF2095FF1FD0B5FF1F94
:10312000A895FF1FF8B5184E184803220223002760
:103130004FF400753146F41D3560F27133727772C9
:10314000B77206F10F0504F07BFC3A46234603F8FC
:10315000012FAB42FBD108234FF440720A490B48C0
:10316000F371326004F06CFC002304F8013FAC42C0
:10317000FBD105234FF444723260F37102490348D6
:10318000BDE8F84004F05CBC2095FF1FD0B5FF1FE0
:1031900038B5164C164A2368101D12F8011F9042CC
:1031A00041EA0323F9D12360124C03F10043236069
:1031B000114BDB6F022B11D0104B1B68012B00D081
:1031C00038BD0F4807F09CFF21680D4807F0E8FF65
:1031D00003210C48BDE8384007F002BD20680A4DC5
:1031E00009F08EFA2860FEF7C7FFE5E75894FF1F45
:1031F000C792FF1FFC94FF1FFC92FF1F4894FF1F04
:10320000EC87FF1F141401009492FF1F30B53C4C53
:103210003C4883B0214604F00BFB236840F2C232E5
:10322000934252D0A3F58C621F2A48D9A3F5FC63C0
:103230000F2B3FD9344B1B68012B01D003B030BD9D
:10324000324B1B68012BF9D1314B32481B6801937B
:103250000A220023019907F063FF2268284B002A05
:10326000DB7945DB2C492D480AF066FA2B480AF039
:10327000A7FA0146294807F0B3FC2568204B15F052
:10328000804526D1DB798BB1631925491A7A234809
:103290000AF052FA21480AF093FA01461F4807F053
:1032A0009FFC0135E379EDB2AB42EDD8194807F048
:1032B00027FFC3E712491B48FDF744FBBAE7104953
:1032C0001848FDF73FFB2368B0E7FFF761FF23686D
:1032D000A8E7154D114C0FCD0FC495E8030044F835
:1032E000040B204620F81419152107F079FCDDE7BE
:1032F0000E490A4822F060420AF01EFAB6E700BF03
:10330000C092FF1FD0B5FF1F4C87FF1F4894FF1FBF
:1033100078B7FF1FEC87FF1F401401007894FF1F50
:103320006C140100A895FF1F54140100181401002B
:10333000A24B1B78052B00F0A1802DE9F04FA04C8B
:10334000A04EA14D626EE36DA048326083B02B6049
:10335000FDF73CFCE16A09F0C5FB08B100232B60D6
:103360009A48FDF731FCA16A09F0DAFB10B100239D
:1033700033602B609548FDF775FBE16809F0D0FBE1
:1033800008B100232B609148FDF76CFBE16809F060
:10339000C7FB08B100232B608C48894FFDF73AFB2F
:1033A000216909F09FFB00286ED0002333602B6851
:1033B000854F002B53DD8548DFF80482FDF704FCC0
:1033C000216B09F08FFB002840F0C480804B7F48C0
:1033D0001B687B4F012B00F0FD80FDF743FBE1698B
:1033E0008046606909F0D6F80146404609F098FB2E
:1033F000002834D0286809F083F982467348FDF725
:1034000031FBD7F814808346F969404609F0C2F8C9
:103410008146386E09F074F90446F86D09F070F9C8
:10342000214609F0B7F849460746584609F0B2F870
:103430000146384609F0B8F949460746404609F0C2
:10344000A9F80146384609F063FA214609F0A4F8C4
:103450000146504609F09EF809F06CFB286033687D
:10346000584A002BAFBF2B682B6800211160002B3E
:1034700001DA00232B6003B0BDE8F08F5149524AB6
:1034800000230B60136070475048FDF7C3FAB96919
:1034900009F028FB002888D13368DFF82891002B39
:1034A00085DD4A48FDF792FB796B09F039FB00286E
:1034B00040F0B3804548424FFDF7ACFA216909F06E
:1034C0002FFB002800F09F804048DFF8F480FDF7D4
:1034D000A1FAD4F8BC100746A06909F05DF80146CE
:1034E000384609F0FFFA00283FF461AF306809F070
:1034F00007F982463548FDF78DFA8346D8F864000F
:10350000D8F8187009F0FCF839468146584609F099
:1035100041F849468346002009F03CF801465846E8
:1035200009F042F9D8F8BC108346384609F034F85F
:10353000394609F02FF80146584609F0E9F949469D
:1035400009F02AF80146504609F024F809F0F2FA89
:1035500030602CE7386809F0D3F883461B48FDF744
:1035600033FB0190D8F85C00D8F82CA009F0C8F81B
:10357000019B81465146184609F00CF849460190D6
:10358000002009F007F8019B0146184609F00CF9E4
:1035900051460190D8F8300008F0FCFF019B01462D
:1035A000184609F0B5F9494608F0F6FF01465846B5
:1035B00008F0F0FF09F0BEFA386007E77494FF1FC7
:1035C000FC92FF1F0495FF1F7C92FF1FA895FF1F11
:1035D0009892FF1FFDF746FAE1698046206A08F0DD
:1035E000D9FF0146404609F09BFA00283FF437AF67
:1035F000286809F085F882461E48FDF733FAD7F8A7
:103600002080834600E71B48FDF704FAB96909F0FA
:1036100087FA00287FF458AFC9E6D9F8000009F00E
:103620006FF882461348FDF7D1FA0190786ED7F80B
:10363000348009F065F8019B83464146184608F03E
:10364000A9FF0146584609F0AFF841468346B86ADB
:1036500008F0A0FF0146584609F05AF9002108F089
:103660009BFF0146504608F095FF09F063FAC9F840
:1036700000001FE7A895FF1F08B5274807F040FD89
:103680000721264807F0ACFA112005F019FC0621A5
:10369000F8B1234807F0A4FA122005F011FC062126
:1036A00000B3204807F09CFA122005F009FC06211F
:1036B00008B31D4807F094FA132005F001FC062119
:1036C00010BB1A4807F08CFA1348BDE8084007F011
:1036D00017BD174807F084FA122005F0F1FB062108
:1036E0000028DED1134807F07BFA122005F0E8FB32
:1036F00006210028DDD1104807F072FA132005F0EA
:10370000DFFB06210028DCD00C4807F069FA0248EC
:10371000BDE8084007F0F4BCEC87FF1F78140100F7
:103720008014010090140100A0140100B8140100DD
:103730008814010098140100A8140100B0140100BD
:1037400010B5254C2368042B27DC01210B2005F044
:10375000B1FB01210C2005F0ADFB0121142005F087
:10376000A9FB0121152005F0A5FBFF21162005F07E
:1037700021FAFF21172005F01DFAFF21052005F091
:1037800019FAFF21062005F015FA236801330A2BE8
:103790002360C4BF0023236010BD00210B2005F06F
:1037A00089FB00210C2005F085FB0021142005F089
:1037B00081FB0021152005F07DFB0021162005F07E
:1037C000F9F90021172005F0F5F90021052005F091
:1037D000F1F90021D6E700BF1C95FF1F08B5FF20B7
:1037E00005F02CFEFF2005F029FEFF20BDE8084073
:1037F00005F024BE70B582B005F0FAFE022801DCA7
:1038000002B070BD05F004FFC0B22328F8D12E4CE1
:1038100005F0FEFE23680093009EC5B207E0236812
:103820000193019B9B1B642BEAD805F07FFB05F0FD
:10383000DFFEA8424FF00100F1DB05F0E9FEC0B267
:1038400001380328DCD8DFE800F02311090205F075
:10385000DFFE0028D4D11D4B1860D1E705F0D8FE5B
:103860000028CDD11A4B1B4A1A60C9E705F0D0FEDB
:10387000194C2368F0B9013B23600A21174805F071
:1038800035FE2168164807F08BFCFFF7A7FFB7E766
:1038900005F0BEFE134CE36D90B90A3BE3650A21C7
:1038A000114805F023FEE16D0D4807F079FCFFF7A4
:1038B00095FFA5E70133642BC8BF64232360DCE7D1
:1038C0000A33E365EBE700BF78B7FF1F9092FF1F55
:1038D0000CED00E00400FA056887FF1FCC1401001E
:1038E000C087FF1FFC92FF1FC014010070B5864CFB
:1038F0002578012D82B000F0F180844D2B78002BCB
:1039000040F0F9801221824805F0F0FD0A2221786A
:103910008048002307F004FCFFF760FF08217E4881
:1039200005F0E4FD7D4B7B48196807F039FCFFF793
:1039300055FF0C217A4805F0D9FD7A4B7A49186871
:1039400008F0E6FF08F086FA002402460B460094D1
:10395000704807F02DFCFFF741FF0921734805F07F
:10396000C5FD7348FDF7D4F808F074FA00940246D8
:103970000B46684807F01CFCFFF730FF0C216D4830
:1039800005F0B4FD6A48FDF721F908F063FA0094E8
:1039900002460B465F4807F00BFCFFF71FFF0D21A7
:1039A000654805F0A3FD6248FDF70EF908F052FAEC
:1039B000009402460B46574807F0FAFBFFF70EFF4C
:1039C00009215E4805F092FD5948FDF771F85C4900
:1039D00008F0EAFE08F03EFA009402460B464D4815
:1039E00007F0E6FBFFF7FAFE0C21564805F07EFDD6
:1039F0004F48FDF70FF8544908F0D6FE08F02AFAB0
:103A0000009402460B46434807F0D2FBFFF7E6FE60
:103A10000D214E4805F06AFD4548FDF723F84A4957
:103A200008F0C2FE08F016FA009402460B46394828
:103A300007F0BEFBFFF7D2FE0E21454805F056FD0C
:103A40003B48FDF70FF805463948FCF7E3FF3E49D0
:103A50000646284608F0A8FE3B490546304608F0D1
:103A6000A3FE0146284608F095FD08F0F3F90094FE
:103A700002460B46274807F09BFBFFF7AFFE0C21E1
:103A8000344805F033FD344B2248197807F088FBA1
:103A9000FFF7A4FE0921314805F028FD304B1D48F1
:103AA000196807F07DFBFFF799FE0A212D4805F004
:103AB0001DFD2D4B1748D96D07F072FBFFF78EFEE9
:103AC0000A212A4805F012FD294B1248196807F00F
:103AD00067FB02B0BDE87040FFF780BE0B4E337845
:103AE000002B7FF40FAF0721224805F0FFFCFFF702
:103AF00075FE357006E707211F4805F0F7FCFFF754
:103B00006DFE00232B70FDE67494FF1F3895FF1F98
:103B1000E8140100C087FF1FFC1401003887FF1F55
:103B200008150100B092FF1F0000C84218150100DF
:103B3000A895FF1F2415010034150100441501004C
:103B4000000020415015010000007A44601501007A
:103B500070150100801501001495FF1F90150100DC
:103B60002487FF1FC0140100FC92FF1FCC1401002A
:103B70006887FF1FD8140100E01401002DE9F04709
:103B8000B64DD5F8B030042B4ED0032B00F08E800C
:103B9000012B00F0C680022B01D0BDE8F087B04CAD
:103BA000B048237240F20E32012321462260E371B5
:103BB00003F046FFAC4B1B685B00FF2BC8BFFF2325
:103BC0006372AA4B4FF4417020601B68A8484022E2
:103BD0002272042180FB0320DB17C3EB6010E1712C
:103BE00008F08EFD696908F0DFFD0646286D08F0D3
:103BF00087FD0146304608F0D7FD9E49054608F08E
:103C00008FFF002800F021812946284608F0C4FCD7
:103C100008F0B6FF80B20312E072A3729049914897
:103C2000BDE8F04703F00CBF904B8D4C1B689048EB
:103C3000A2799149216080FB0310DB170821C3EBB7
:103C4000601042F00103A371E17108F059FD696948
:103C500008F0AAFD0646286D08F052FD01463046E0
:103C600008F0A2FD854908F09FFD08F089FF7E4B12
:103C7000834A1B68126893FBF2F380B200261A1283
:103C80000712607221467748E372A2722772267388
:103C90006673A673E67303F0D3FEA279D5F8B0304D
:103CA00066F30002032BA2717FF472AF6F4A704873
:103CB00012686B4C80FB0210D2170121C2EB60101E
:103CC00040F2FF27E8220726A37262722760E6719E
:103CD000217208F015FD696908F066FD0646286D39
:103CE00008F00EFD0146304608F05EFD634908F01D
:103CF0005BFD08F045FF5C4B614A1B68126893FB53
:103D0000F2F382B21E121712214656486373E27212
:103D10002773A67303F094FED5F8B030012B7FF41F
:103D20003AAF584B4E4C1B6823600722802310206B
:103D3000E271237205F0C4F8002840F08D80524BE8
:103D40001B68DFF828814A48474F4D4EDFF8109135
:103D5000316803EB83035B001A126272D8F800200B
:103D6000A3723B6893FBF1F380FB0210D217C2EB06
:103D700060101A126273A37308F0C2FC696908F03C
:103D800013FD8246286D08F0BBFC0146504608F042
:103D90000BFD3E4B196808F0FDFB384908F004FDA7
:103DA00008F0EEFE80B20312494620732D48E372FC
:103DB00003F046FE022005F0B9F8354B1B6823607E
:103DC000072280231020E271237205F079F8002881
:103DD00040D12D4B1B6803EB83035B001A1289F85B
:103DE0000A3089F80920D8F80030214AD81782FB18
:103DF0000323C0EB631008F083FC696908F0D4FC6E
:103E00008046286D08F07CFC0146404608F0CCFC5A
:103E1000204B196808F0BEFB184908F0C5FC08F0F3
:103E2000AFFE82B24FEA222E30683B68227393FBCA
:103E3000F0F30B490B48A3731A1284F80BE062737A
:103E400003F0FEFDD5F8B030A5E601229023A27262
:103E5000E372E3E6104BBDE70F4B71E7FC92FF1FE7
:103E60002095FF1FD0B5FF1F7C92FF1F6887FF1FA3
:103E70001F85EB5100004843F4E50618000020417F
:103E80005087FF1F6487FF1F4487FF1FD493FF1FC6
:103E90003487FF1FB892FF1F4887FF1F38B5164DA4
:103EA000164A1748294604F053FB18B1154B1B68F6
:103EB000012B00D038BD12211348144C06F090FE9F
:103EC000296813480023102207F02AF9104807F048
:103ED00017F904F1080514F8011F0D4800230A2200
:103EE00007F01EF9092006F0FFFEA542F3D10848AD
:103EF000BDE8384007F004B9A092FF1FA492FF1F4D
:103F00004495FF1F4095FF1F9C150100A392FF1FC2
:103F1000EC87FF1FFA2810B504461BD0B0F5FA7FD6
:103F20000FD11021134804F0C9FBC8B10F2112486A
:103F300006F056FE114807F0E3F8114BA3F8C44011
:103F400010BD0F210F4806F04BFE0C48BDE8104095
:103F500007F0D6B80F21074804F0B0FB0028E5D1E0
:103F60001121094806F03CFE0448BDE8104007F066
:103F7000C7B800BF4495FF1FB0150100EC87FF1FB5
:103F8000FC92FF1FD4150100C01501002DE9F04F70
:103F9000BF4B1B78032B83B00DD0BE4D2C68022C79
:103FA00000F0AE800134022C2C6001DD00232B6078
:103FB00003B0BDE8F08FB84FB64DD7F8B060042E0F
:103FC00000F0C080032E00F0B780012E00F00481C5
:103FD000022E48D12C68DFF8BC92002C00F0D7816B
:103FE000012CDCD1DFF8B882AC4BAD4A1B68AD4880
:103FF0005B00FF2BC8BFFF235370AB4B1B6880FBDC
:104000000320DB17C3EB6010402188F8001008F094
:1040100077FB796908F0C8FB0446386D08F070FB3F
:104020000146204608F0C0FBA049044608F078FD90
:10403000002800F024822146204608F0ADFA08F05E
:104040009FFD80B2031288F8030088F80230042232
:1040500000238DE804014FF441711A46944804F09E
:1040600043FAD7F8B060062E6AD18F4B8D481B6893
:10407000904C80FB0320DB1700220821C3EB60106B
:104080005026DC23227263722660E17108F038FB4F
:10409000796908F089FB0646386D08F031FB014666
:1040A000304608F081FB8149074608F039FD0028B9
:1040B00040F016810722D023A272E372774B7D4E27
:1040C00018680023237308F01BFB394608F06CFBCB
:1040D0007949074608F006FD002800F00C81774971
:1040E000384608F015FC08F04BFD80B20312B0739F
:1040F000737301236F497248E37303F0A1FC1FE05F
:10410000654B93F8CC0000283FF450AF644EA023D9
:10411000337008F0F5FA6B4908F046FB08F030FD03
:10412000002370701A468DE850004FF4EA71604821
:1041300004F0DAF92C6835E72C68002C00F0DF80F9
:104140002C682CE72C68002CFAD1DFF85CA15548CC
:10415000DAF80030DFF84881DFF840915A4E80FBF2
:104160000320DB17C3EB601008F0CAFA796908F086
:104170001BFB8246386D08F0C3FA0146504608F032
:1041800013FB524908F010FB08F0FAFCCDF804804C
:1041900080B2D9F80030366893FBF6F60212082395
:1041A0004FEA262E009388F8002088F80100234665
:1041B000012247493E4888F8036088F8044088F89F
:1041C000054088F8064088F8074088F802E004F0C7
:1041D0008BF9D7F8B060F5E62B68002B00F0F28081
:1041E000012BADD1DFF8C0A0DFF8B480DFF8AC90D0
:1041F000354E2B4C8023102088F8003004F060FEF0
:10420000002840F04381334B1B68264803EB8303AF
:104210005B001A12A370DAF80030627080FB032092
:10422000DB17C3EB601008F06BFA796908F0BCFA91
:104230000446386D08F064FA0146204608F0B4FAE6
:10424000254B196808F0A6F9204908F0ADFA08F0E6
:1042500097FC224AD9F800301168346893FBF4F4D3
:1042600080B2072200230092021288F8040026126E
:1042700088F80320CDF804801A460D4888F80560B8
:1042800088F8064004F030F9D7F8B060A0E600BF27
:104290007494FF1FD893FF1FFC92FF1F7C92FF1F97
:1042A000A492FF1F1F85EB516887FF1F0000484342
:1042B0004495FF1F2095FF1F00404E4500007043AE
:1042C000D0B5FF1F5C8FA23F5087FF1F0000204129
:1042D000F4E506184487FF1FB892FF1F3487FF1FBD
:1042E0006B49384608F060FA08F04AFC80B20312C5
:1042F000E072A372E2E696237073B373F9E6DFF817
:10430000B4A16448DAF80030DFF8AC81DFF8AC9192
:1043100088F8026080FB0320DB170122C3EB6010EA
:10432000E82388F8002088F8013008F0E9F9796975
:10433000594E08F039FA8246386D08F0E1F9014625
:10434000504608F031FA524908F02EFA08F018FCED
:1043500080B2CDF8048001120722D9F80030366807
:1043600088F8030093FBF6F600924FEA262E88F8B1
:1043700004102346224640F2FF21484888F8056091
:1043800088F806E004F0B0F8D7F8B0601DE6DFF872
:104390002881CDF80480042300932246234640F26E
:1043A0000E313E4888F8006088F8014088F80240E5
:1043B00088F8034004F098F8D9F80030012B7FF416
:1043C00050AE11E6DFF8F0808023102088F800302E
:1043D00004F076FD002850D1314B1B68DFF8D4A0E3
:1043E0002C48DFF8D8902C4E2E4C316803EB830319
:1043F0005B001A1288F80120DAF8002088F80230F1
:10440000D9F8003093FBF1F380FB0210D217C2EB16
:104410006010191288F8063088F8051008F070F955
:10442000796908F0C1F98346386D08F069F90146E9
:10443000584608F0B9F91C4B196808F0ABF8144954
:1044400008F0B2F908F09CFB184BCDF8048019680D
:1044500080B2002307224FEA202E009288F8040041
:104460001A460E4888F803E004F03EF82B68012B4A
:104470003FF4BFAED4F8B060AAE50D4BADE7012222
:10448000902388F8022088F80330E0E5084BBBE66B
:10449000000020411F85EB515087FF1F4495FF1FEF
:1044A0004487FF1FFC92FF1FD493FF1F6487FF1FE9
:1044B0004887FF1F6887FF1FA492FF1F7C92FF1F82
:1044C00010B504F0C9F90B48FCF7E0F90A48FDF70C
:1044D0002BFA0A4A0A4812680023012103F084FFDC
:1044E000942006F0ABFF044603F024FC054B1C604F
:1044F00010BD00BFA895FF1FE893FF1F4087FF1F57
:10450000D492FF1F0C95FF1FF0B54FF47A6085B071
:1045100004F00CFD0021112004F0E0FC002110202B
:1045200004F0DCFC0021122004F0D8FC0021132050
:1045300004F0D4FC01210B2004F0D0FC01210C205C
:1045400004F0CCFC0121142004F0C8FC012115204A
:1045500004F0C4FC0121162004F0C0FC0121172046
:1045600004F0BCFC0121052004F0B8FC8E4C8F4DFA
:104570000121062004F0B2FC01210D2004F0AEFC64
:10458000208808F0B9F80146162004F011FC2088B4
:1045900008F0B2F80146172004F00AFC208808F061
:1045A000ABF80146052004F003FC208808F0A4F8CD
:1045B00000240146062004F0FBFB009423467C4ABD
:1045C0007C497D4803F044F8E6B2324677497A48A0
:1045D00002F0ECFF2B79754977486FF30003013443
:1045E00032462B7102F0D8FF082CEDD10924E6B237
:1045F00032466E49704802F0D9FF2B796B496E48FC
:1046000043F00103013432462B7102F0C5FF0D2C3B
:10461000EDD16A4C23681021D3F8840003F0EAFC42
:1046200023681021D3F8840003F078FD2368022169
:10463000D3F8840003F034FC23680221D3F884000B
:1046400003F0BCFD23680F21D3F8840003F0A4FE1F
:104650000C215B4806F0C4FA5A4806F051FD1621B9
:10466000594806F0BDFA574806F04AFD4FF4E131CB
:10467000564806F0E5FB534806F042FD1721544822
:1046800006F0AEFA4F4806F03BFD524B1B789A06F7
:1046900000F1BC804F4B1B781B0700F1C3804D4BD2
:1046A0001B785F0700F1CA804A4B1B789E0700F118
:1046B000D180494B1B781D0600F1D880464B1B78F2
:1046C0005C0600F1DF80444B1B78980600F1E68021
:1046D000414B1B78590700F1ED803F4B1B781A07BF
:1046E00000F1F4803C4B1B789B0700F1FB803548C0
:1046F00006F006FD72B6394A4CF220504DF62811EC
:10470000108020231180013BFDD1354C35483649BE
:1047100000234FF48055258003800B8032F80E3C37
:104720009BB243F0D30322F80E3C62B618212F4807
:104730002F4D06F055FA234806F0E2FC05F1D006AD
:104740002F462C46601B04F0CFF804F8010BB4424E
:10475000F8D13B78122B01D0FDF7FCF8D7F8C81040
:10476000244806F01DFC0420FCF7BAFF224B00226F
:1047700001210D201A6004F09DFB796D1F48FCF7A4
:1047800099F97A6C97F840101C48FCF795F91C4B86
:104790001C491A68039203981B680293029A1A4BE9
:1047A00008601A6005B0F0BD2887FF1FDC93FF1F6B
:1047B0006CB7FF1F48E80100D0B5FF1F0C95FF1F25
:1047C000E4150100EC87FF1FF4150100C087FF1FEF
:1047D0000C16010001F0074000F007400E200540D4
:1047E0000420054006200540162005401017010052
:1047F000FC92FF1FD487FF1F8892FF1FA895FF1F01
:1048000078B7FF1F3C95FF1FE493FF1F2121394814
:1048100006F0E6F9384806F073FC384B1B781B07A6
:104820007FF53DAF0C21364806F0DAF9324806F044
:1048300067FC324B1B785F077FF536AF0E2131489E
:1048400006F0CEF92C4806F05BFC2C4B1B789E073B
:104850007FF52FAF17212C4806F0C2F9264806F045
:104860004FFC2A4B1B781D067FF528AF0E212848E8
:1048700006F0B6F9204806F043FC244B1B785C0692
:104880007FF521AF1221234806F0AAF91A4806F055
:1048900037FC1E4B1B7898067FF51AAF13211E4874
:1048A00006F09EF9144806F02BFC184B1B785907AC
:1048B0007FF513AF1C21194806F092F90E4806F057
:1048C0001FFC124B1B781A077FF50CAF19211448F7
:1048D00006F086F9084806F013FC0C4B1B789B0782
:1048E0007FF505AF18210F4806F07AF9024806F067
:1048F00007FCFCE624160100EC87FF1F01F00740CF
:1049000048160100581601006816010000F0074023
:104910008016010090160100A4160100B8160100CF
:10492000D8160100F416010010B501460446002314
:104930000A221A4806F0F4FB184806F0E1FBB4F529
:10494000964F28D019D9B4F5164F14D0B4F5E13FDD
:1049500018D10421124803F0D3FE124BC3F8C8400B
:1049600005F0FEF82146104806F01AFB0C48BDE899
:10497000104003F093BE0221ECE7B4F5165F01D1BD
:104980000021E7E70F21094806F02AF90348BDE8AE
:10499000104006F0B5BB0121DCE700BFEC87FF1F2C
:1049A0004495FF1FFC92FF1FD487FF1F2C170100A7
:1049B000F0B5954C954D83B006F0ACF823682860AF
:1049C000042B00F09E82022B29D0092B70D0082BDB
:1049D00040F09680322800F0EC83712800F09D8032
:1049E000312840F09E8006F0D1F8002840F311876E
:1049F0008748884E06F016FDC0B286F840000228AF
:104A000094BF01460021726C834888BF86F840102D
:104A1000FCF752F8012369202360286018E3A0F115
:104A20003102422A7DD8DFE812F07F078B07990711
:104A3000AB07F50704087C0011087C007C007C00B3
:104A40007C007C007C007C007C007C007C007C0086
:104A50007C007C007C007C007C007C007C007C0076
:104A60007C007C007C007C007C007C007C007C0066
:104A70007C007C007C007C007C007C007C007C0056
:104A80007C007C007C007C007C007C007C00790742
:104A90007C007C007C007C007C007C007C007C0036
:104AA0007C007C007C007C007C0078007C001E0880
:104AB000332801F04C8410DC312801F07A8432284C
:104AC0002FD10123236006F061F8002815DD50483E
:104AD00006F0A8FCFFF71EFA0FE034281BD10123D3
:104AE000236006F053F8002807DD494806F09AFCD9
:104AF000642303FB00F0FFF717FF7820236828608A
:104B0000072B40F0AB80332801F02A8440F38682E3
:104B1000342801F05C84712803D1002373202360C2
:104B20002860732808BF002B0CBF0120002000283C
:104B300067D0374806F0E4FA0421384806F050F808
:104B4000334806F0DDFA1021354806F049F83048C0
:104B500006F0D6FA1321334806F042F8324B2C48BF
:104B6000196806F01DFB2A4806F0CAFA14212F48DE
:104B700006F036F8264806F0C3FA1E212C4806F047
:104B80002FF8234806F0BCFA15212A4806F028F829
:104B90001F4806F0B5FA1E21274806F021F81C48E8
:104BA00006F0AEFA2021254806F01AF8184806F05B
:104BB000A7FA1921224806F013F8154806F0A0FAC2
:104BC0001621204806F00CF8114806F099FA122137
:104BD0001D4806F005F80E4806F092FA0F211B4812
:104BE00005F0FEFF0A4806F08BFA0D21184805F083
:104BF000F7FF074806F084FA164A002101231160E6
:104C0000236003B0F0BD00BF6094FF1F7892FF1FC8
:104C1000EC87FF1FFC92FF1FA895FF1F5C2001007F
:104C200064200100782001002487FF1F8C200100F0
:104C3000A4200100C4200100DC200100FC200100B0
:104C4000202101003C2101005421010068210100C4
:104C5000782101004C87FF1F23682868062B40F04D
:104C60008D80A0F13102402A3FF65BAF01A151F8DF
:104C700022F000BFB9580000255800004F5800002E
:104C8000755800009B580000E558000009590000C5
:104C9000234B0000234B0000234B0000234B00005C
:104CA000234B0000234B0000234B0000234B00004C
:104CB000234B0000234B0000234B0000234B00003C
:104CC000234B0000234B0000234B0000234B00002C
:104CD000234B0000234B0000234B0000234B00001C
:104CE000234B0000234B0000234B0000234B00000C
:104CF000234B0000234B0000234B0000234B0000FC
:104D0000234B0000234B0000234B0000234B0000EB
:104D1000234B0000234B0000234B0000234B0000DB
:104D2000234B0000234B0000234B0000234B0000CB
:104D3000234B0000234B0000234B0000234B0000BB
:104D4000234B0000234B0000234B0000234B0000AB
:104D5000234B0000234B0000234B0000234B00009B
:104D6000234B0000234B0000234B0000234B00008B
:104D7000234B00001B4B000023682868052B15D12E
:104D8000332801F04C8340F39181352801F03183C1
:104D9000C1F2568371287FF4C4AECF4A002373203A
:104DA000136023602860BCE623682868032B40F06A
:104DB000A480A0F13002422A3FF6B3AE01A151F81F
:104DC00022F000BFD14E0000CB610000F361000073
:104DD00037610000596100007B610000A3610000A1
:104DE000556000007360000097600000234B0000D6
:104DF000234B0000234B0000234B0000234B0000FB
:104E0000234B0000234B0000234B0000234B0000EA
:104E1000234B0000234B0000234B0000234B0000DA
:104E2000234B0000234B0000234B0000234B0000CA
:104E3000234B0000234B0000234B0000234B0000BA
:104E4000234B0000234B0000234B0000234B0000AA
:104E5000234B0000234B0000234B0000234B00009A
:104E6000234B0000234B0000234B0000234B00008A
:104E7000234B0000234B0000234B0000234B00007A
:104E8000234B0000234B0000BF6000007B5B000051
:104E900019610000DD600000FB600000D35F0000CE
:104EA000315B0000555B0000234B0000234B0000EA
:104EB000234B0000234B0000234B0000234B00003A
:104EC000234B0000234B00004960000029600000D4
:104ED00005F05CFE002841F333828048804E06F0E6
:104EE000A1FA01270346014662227E4873652760C6
:104EF0002A60FBF7DFFD23682868012B7FF411AEE1
:104F0000A6E0A0F13002412A3FF60BAE01A151F814
:104F100022F000BF155B00002D5B0000775A0000F7
:104F20008F5A0000B55A0000F95A0000BD5A00001F
:104F3000CF5A0000D35A0000D75A0000234B00007C
:104F4000234B0000234B0000234B0000234B0000A9
:104F5000234B0000234B0000234B0000234B000099
:104F6000234B0000234B0000234B0000234B000089
:104F7000234B0000234B0000234B0000234B000079
:104F8000234B0000234B0000234B0000234B000069
:104F9000234B0000234B0000234B0000234B000059
:104FA000234B0000234B0000234B0000234B000049
:104FB000234B0000234B0000234B0000234B000039
:104FC000234B0000234B0000234B0000234B000029
:104FD000234B0000234B0000B95A0000234B000074
:104FE000234B0000234B0000234B0000234B000009
:104FF000234B0000234B0000234B0000234B0000F9
:10500000234B0000234B0000234B0000234B0000E8
:10501000234B0000234B00001B4B0000312801F004
:10502000B28132287FF47DAD05F0B0FD00287FF716
:1050300013AE2A482A4E06F0F5F907F061FB2A491B
:1050400007F0B2FB61230122F06322602B60184657
:10505000A0F15203262B01F26A81DFE813F0DE088B
:1050600068096809680968096809680968096809B8
:10507000680968096809680968096809C1004C0B72
:1050800088022503A5016809680968093A026809C8
:10509000490B68096809680968096809E30868092B
:1050A000680968096809680968093501312801F04B
:1050B000D58132287FF435AD05F068FD00287FF7F3
:1050C00073AE0648064E06F0ADF901226B23C6F812
:1050D0009C0022602B600BE0D092FF1FEC87FF1F2B
:1050E000FC92FF1FA895FF1F6F12833A05F012FD77
:1050F00005F04CFD0028F9D1914806F001F89048E0
:1051000005F0FEFF8E4805F0FBFF8D4805F0F8FF27
:105110008B4805F0F5FF21218A4805F061FD88489C
:1051200005F0EEFF1521884805F05AFDD6F89410D9
:10513000834806F035F80221844805F051FD804887
:1051400005F0DEFF1E21824805F04AFDD6F89C10CE
:105150007B4806F025F803217E4805F041FD78489C
:1051600005F0CEFF1E217C4805F03AFDD6F89810D8
:10517000734806F015F8724805F0C2FF1D21774804
:1051800005F02EFDD6F8A4106D4806F009F86C481D
:1051900005F0B6FF1E21724805F022FDD6F8A810D2
:1051A000674805F0FDFF664805F0AAFF0523236068
:1051B00027E505F0EBFC002840F330836048694E9A
:1051C00006F030F907F09CFA674907F0EDFA03465C
:1051D000024696F840106548736419E405F09AFC9D
:1051E00005F0D4FC05460028F8D155485D4E05F081
:1051F00087FF534805F084FF514805F081FF504870
:1052000005F07EFF4E4805F07BFF1F21584805F052
:10521000E7FC4B4805F074FF1C21564805F0E0FC04
:10522000706A554907F0C0FA06F014FE0095024670
:105230000B46434805F0BCFF0221504805F0D0FC66
:105240003F4805F05DFF23214D4805F0C9FCF06B98
:10525000494907F0A9FA06F0FDFD009502460B4604
:10526000374805F0A5FF0221444805F0B9FC344851
:1052700005F046FF1921434805F0B2FCB06B06F07B
:10528000E9FD02250B46024600952D4805F090FFEA
:1052900029463D4805F0A4FC294805F031FF1921B5
:1052A0003A4805F09DFCB6F8B810254805F078FF9F
:1052B0000321374805F094FC214805F021FF07231E
:1052C00023609EE405F026FC05F060FC05460028FE
:1052D000F8D11B48234E05F013FF194805F010FFC5
:1052E000174805F00DFF164805F00AFF144805F0B1
:1052F00007FF1221274805F073FC114805F000FF55
:105300000F4805F0FDFE0E4805F0FAFE192122486F
:1053100005F066FC96F8C230002B41F0C2800421F3
:105320001E4805F05DFC064805F0EAFE13211C4806
:1053300005F056FC024805F0E3FE0923236060E413
:10534000EC87FF1F541A0100781A0100641901004C
:10535000901A0100C0120100B01A0100D01A010019
:10536000F01A0100FC92FF1F6F12833AA895FF1FED
:10537000B0190100D019010000007A44481801005A
:10538000F0190100141A0100301A0100341A01004A
:10539000501A010040210100601701007C17010034
:1053A000EC17010005F0B6FB05F0F0FB0546002800
:1053B000F8D1A548A54E05F0A3FEA34805F0A0FE30
:1053C000A14805F09DFEA04805F09AFE9E4805F014
:1053D00097FE11219E4805F003FC9B4805F090FEC6
:1053E00028219C4805F0FCFB70699B4907F0DCF91B
:1053F00006F030FD009502460B46934805F0D8FEB6
:105400000221964805F0ECFB8F4805F079FE162145
:10541000934805F0E5FBF0698F4907F0C5F906F000
:1054200019FD00950B460246874805F0C1FE022192
:105430008A4805F0D5FB844805F062FED6F8B03006
:10544000002B32DD1D21874805F0CAFBF06D07F007
:1054500057F9854907F0A8F906F0FCFC0225024639
:105460000B460095784805F0A3FE01217F4805F022
:10547000B7FB754805F044FE1F217D4805F0B0FBE1
:10548000306E07F03DF9784907F08EF906F0E2FC3E
:10549000009502460B466C4805F08AFE01217348D0
:1054A00005F09EFB684805F02BFE1121714805F0C0
:1054B00097FBD6F8B030062B00F2E486DFE813F055
:1054C0002D073207280723071E071907DE0605F0F8
:1054D00021FB05F05BFB05460028F8D15A485B4EDE
:1054E00005F00EFE584805F00BFE574805F008FE83
:1054F000554805F005FE544805F002FE15215E48AA
:1055000005F06EFB504805F0FBFD18215B4805F0E7
:1055100067FB2B460A2296F840104B4805F000FE28
:10552000494805F0EDFD2821554805F059FB706C00
:10553000494907F039F906F08DFC00950B46024603
:10554000414805F035FE0221444805F049FB3E483C
:1055500005F0D6FD13214B4805F042FB3A4805F013
:10556000CFFD08232360FFF74CBB05F0D3FA05F00D
:105570000DFB0028F9D13448344E05F0C1FD324806
:1055800005F0BEFD304805F0BBFD2F4805F0B8FD25
:105590002D4805F0B5FD1F213B4805F021FB2A48A9
:1055A00005F0AEFD1E21394805F01AFB264805F02E
:1055B000A7FD1A21364805F013FBF36F022B01F00B
:1055C0007880032B01F06C80012B01F060800921B1
:1055D000304805F005FB1C4805F092FD14212E48CB
:1055E0001A4F05F0FDFAB16F174805F0D9FD1648BE
:1055F00005F086FD1C21294805F0F2FAD6F8801046
:10560000114805F0CDFD104805F07AFD1C21244815
:1056100005F0E6FAD6F8AC100B4805F0C1FD0A48D3
:1056200005F06EFDF56F25F00205012D00F0C48731
:105630001321144805F0D4FA034805F061FD022354
:105640002360FFF7DEBA00BFEC87FF1FFC92FF1F4D
:10565000C82001004C18010000007A4448180100DD
:105660007818010090180100CDCCCC3D8C1D0100B4
:10567000B0180100D0180100242101000018010019
:105680001C180100EC1701004C1C01006C1C0100EF
:105690008C1C0100041D0100101D0100281D0100CB
:1056A000481D010005F036FA05F070FA0028F9D11E
:1056B000BD48BE4D05F024FDBB4805F021FDBA48AC
:1056C00005F01EFDB84805F01BFDB74805F018FDB4
:1056D0001321B74805F084FAB34805F011FD0D21F8
:1056E000B44805F07DFAB04805F00AFD0F21B24834
:1056F00005F076FAB14BAC48196805F051FDAA489F
:1057000005F0FEFC1321AE4805F06AFAAD4BA64841
:10571000196805F045FDA44805F0F2FC1221AA48DD
:1057200005F05EFAA94BA048196805F039FD9E48BE
:1057300005F0E6FC1121A64805F052FAA54B9A485F
:10574000196805F02DFD984805F0DAFC0E21A248F5
:1057500005F046FAD5F8A010934805F021FD9248CF
:1057600005F0CEFC19219D4805F03AFA9C4B8E4875
:10577000196805F015FD8C4805F0C2FC1121994807
:1057800005F02EFA984B8848196805F009FD8648FF
:1057900005F0B6FC1021954805F022FA944B82489A
:1057A000196805F0FDFC804805F0AAFC1C21914811
:1057B00005F016FA904B7C48196805F0F1FC7A4820
:1057C00005F09EFC1E218D4805F00AFA95F8C130BF
:1057D000002B00F0AC860D21894805F001FA7248D3
:1057E00005F08EFC1521874805F0FAF9864B6E48C6
:1057F000196805F0D5FC6C4805F082FC132183483C
:1058000005F0EEF9684805F07BFC04232360FFF700
:10581000F8B9664E96F84000FFF7F1B8236828689B
:10582000FFF76EB905F0B2F900287FF7A5AA5E4828
:105830005E4E05F0F7FD06F063FF754907F068F866
:1058400065230122F06122602B60184600E405F018
:105850009DF900287FF790AA5348544E05F0E2FDC9
:1058600000EB8000430001226520F3652260286080
:10587000FFF7EEBB05F08AF900287FF77DAA4A48BA
:105880004A4E05F0CFFD00EB800043000122652069
:10589000336622602860FFF7DBBB444AD2F8B030A1
:1058A0000133062BC8BF0023C2F8B03001236520A6
:1058B00023602860FFF7CCBB05F068F900287FF76C
:1058C0005BAA3948394E05F0ADFD06F019FF504985
:1058D00007F01EF865230122706122602B601846D4
:1058E000FFF7B6BB05F052F900287FF745AA2E480E
:1058F0002E4E05F097FD65230122C6F8B400226004
:105900002B601846FFF7A4BB284B93F8C020002A51
:1059100000F0C285002283F8C020C7E7FDF700FA37
:1059200023682868FFF751B8204EB36FB3FA83F3AA
:105930005B0901226320B36722602860FFF788BB00
:105940001A4ED6F88030B3FA83F35B090122632044
:10595000C6F8803022602860FFF77ABB01232360FD
:1059600005F014F9002805DD0F48104E05F05AFD2A
:10597000C6F8AC000123632023602860FFF768BBF2
:105980000123236005F002F9002807DD0648074ED1
:1059900005F048FD06F0B4FEC6F88C0063202860D0
:1059A0002368FFF714B800BFEC87FF1FFC92FF1FAE
:1059B000101B0100241B0100341B01004894FF1F31
:1059C000441B01003495FF1F581B01007094FF1FFA
:1059D0006C1B01001095FF1F801B0100901B010034
:1059E0005C94FF1FAC1B0100D092FF1FC01B010085
:1059F0009C92FF1FD41B01006087FF1FF41B010056
:105A0000141C0100341C01004095FF1FEC1701001D
:105A100000007A440123236005F0B8F80028BDDDBA
:105A20005D485E4E05F0FEFC06F06AFEC6F8880092
:105A3000B4E70123236005F0A9F80028AEDD56483D
:105A4000564E05F0EFFCA6F8BA00A7E70123236045
:105A500005F09CF800288DDD4F48504E05F0E2FC23
:105A6000C6F8900086E74D4AD36F0133032BC8BFB9
:105A70000023D3677EE74A4A1368B3FA83F35B09CE
:105A800001216420136021602860FFF7E1BA454AD4
:105A9000454F1368002B0CBF012300234FF001007A
:105AA0001360206040F00E86034664222A60642062
:105AB000FEF78BBF3D4ADFE73D4ADDE701233D4866
:105AC0002360FAF715FF3C4A23681060EDE73B4A74
:105AD000D2E73B4AD0E70123236005F057F80028BE
